{
  "contracts/Hero.sol": {
    "Hero": {
      "abi": [
        {
          "inputs": [
            {
              "internalType": "enum Hero.Class",
              "name": "class",
              "type": "uint8"
            }
          ],
          "name": "createHero",
          "outputs": [],
          "stateMutability": "payable",
          "type": "function"
        },
        {
          "inputs": [],
          "name": "generateRandom",
          "outputs": [
            {
              "internalType": "uint256",
              "name": "",
              "type": "uint256"
            }
          ],
          "stateMutability": "view",
          "type": "function"
        },
        {
          "inputs": [
            {
              "internalType": "uint256",
              "name": "hero",
              "type": "uint256"
            }
          ],
          "name": "getDex",
          "outputs": [
            {
              "internalType": "uint32",
              "name": "",
              "type": "uint32"
            }
          ],
          "stateMutability": "pure",
          "type": "function"
        },
        {
          "inputs": [
            {
              "internalType": "uint256",
              "name": "hero",
              "type": "uint256"
            }
          ],
          "name": "getHealth",
          "outputs": [
            {
              "internalType": "uint32",
              "name": "",
              "type": "uint32"
            }
          ],
          "stateMutability": "pure",
          "type": "function"
        },
        {
          "inputs": [],
          "name": "getHeroes",
          "outputs": [
            {
              "internalType": "uint256[]",
              "name": "",
              "type": "uint256[]"
            }
          ],
          "stateMutability": "view",
          "type": "function"
        },
        {
          "inputs": [
            {
              "internalType": "uint256",
              "name": "hero",
              "type": "uint256"
            }
          ],
          "name": "getIntellect",
          "outputs": [
            {
              "internalType": "uint32",
              "name": "",
              "type": "uint32"
            }
          ],
          "stateMutability": "pure",
          "type": "function"
        },
        {
          "inputs": [
            {
              "internalType": "uint256",
              "name": "hero",
              "type": "uint256"
            }
          ],
          "name": "getMagic",
          "outputs": [
            {
              "internalType": "uint32",
              "name": "",
              "type": "uint32"
            }
          ],
          "stateMutability": "pure",
          "type": "function"
        },
        {
          "inputs": [
            {
              "internalType": "uint256",
              "name": "hero",
              "type": "uint256"
            }
          ],
          "name": "getStrength",
          "outputs": [
            {
              "internalType": "uint32",
              "name": "",
              "type": "uint32"
            }
          ],
          "stateMutability": "pure",
          "type": "function"
        }
      ],
      "evm": {
        "bytecode": {
          "linkReferences": {},
          "object": "608060405234801561001057600080fd5b50610a5e806100206000396000f3fe60806040526004361061007b5760003560e01c80635e7e236d1161004e5780635e7e236d146101625780639a8d28821461017e578063b5f0f1b7146101a9578063e53fbda6146101e65761007b565b806302e4af01146100805780633acfcaa7146100ab5780633fc70f2c146100e85780635bc0a62314610125575b600080fd5b34801561008c57600080fd5b50610095610223565b6040516100a291906105dd565b60405180910390f35b3480156100b757600080fd5b506100d260048036038101906100cd9190610629565b610256565b6040516100df9190610675565b60405180910390f35b3480156100f457600080fd5b5061010f600480360381019061010a9190610629565b610267565b60405161011c9190610675565b60405180910390f35b34801561013157600080fd5b5061014c60048036038101906101479190610629565b610278565b6040516101599190610675565b60405180910390f35b61017c600480360381019061017791906106b5565b610289565b005b34801561018a57600080fd5b5061019361050e565b6040516101a091906107a0565b60405180910390f35b3480156101b557600080fd5b506101d060048036038101906101cb9190610629565b6105a2565b6040516101dd9190610675565b60405180910390f35b3480156101f257600080fd5b5061020d60048036038101906102089190610629565b6105b3565b60405161021a9190610675565b60405180910390f35b600044426040516020016102389291906107e3565b6040516020818303038152906040528051906020012060001c905090565b6000601f601183901c169050919050565b6000601f600783901c169050919050565b6000601f601683901c169050919050565b66b1a2bc2ec500003410156102d3576040517f08c379a00000000000000000000000000000000000000000000000000000000081526004016102ca9061086c565b60405180910390fd5b6000600567ffffffffffffffff8111156102f0576102ef61088c565b5b60405190808252806020026020018201604052801561031e5781602001602082028036833780820191505090505b509050600281600081518110610337576103366108bb565b5b602002602001018181525050600781600181518110610359576103586108bb565b5b602002602001018181525050600c8160028151811061037b5761037a6108bb565b5b60200260200101818152505060118160038151811061039d5761039c6108bb565b5b6020026020010181815250506016816004815181106103bf576103be6108bb565b5b60200260200101818152505060006005905060008360028111156103e6576103e56108ea565b5b90505b6000826103f4610223565b6103fe9190610948565b90506000600184600d61041191906109a8565b610419610223565b6104239190610948565b61042d91906109a8565b9050848281518110610442576104416108bb565b5b602002602001015181901b83179250838061045c906109fe565b945050848481518110610472576104716108bb565b5b602002602001015185838151811061048d5761048c6108bb565b5b6020026020010181815250505050600082116103e9576000803373ffffffffffffffffffffffffffffffffffffffff1673ffffffffffffffffffffffffffffffffffffffff16815260200190815260200160002081908060018154018082558091505060019003906000526020600020016000909190919091505550505050565b60606000803373ffffffffffffffffffffffffffffffffffffffff1673ffffffffffffffffffffffffffffffffffffffff16815260200190815260200160002080548060200260200160405190810160405280929190818152602001828054801561059857602002820191906000526020600020905b815481526020019060010190808311610584575b5050505050905090565b6000601f600c83901c169050919050565b6000601f600283901c169050919050565b6000819050919050565b6105d7816105c4565b82525050565b60006020820190506105f260008301846105ce565b92915050565b600080fd5b610606816105c4565b811461061157600080fd5b50565b600081359050610623816105fd565b92915050565b60006020828403121561063f5761063e6105f8565b5b600061064d84828501610614565b91505092915050565b600063ffffffff82169050919050565b61066f81610656565b82525050565b600060208201905061068a6000830184610666565b92915050565b6003811061069d57600080fd5b50565b6000813590506106af81610690565b92915050565b6000602082840312156106cb576106ca6105f8565b5b60006106d9848285016106a0565b91505092915050565b600081519050919050565b600082825260208201905092915050565b6000819050602082019050919050565b610717816105c4565b82525050565b6000610729838361070e565b60208301905092915050565b6000602082019050919050565b600061074d826106e2565b61075781856106ed565b9350610762836106fe565b8060005b8381101561079357815161077a888261071d565b975061078583610735565b925050600181019050610766565b5085935050505092915050565b600060208201905081810360008301526107ba8184610742565b905092915050565b6000819050919050565b6107dd6107d8826105c4565b6107c2565b82525050565b60006107ef82856107cc565b6020820191506107ff82846107cc565b6020820191508190509392505050565b600082825260208201905092915050565b7f506c656173652073656e64206d6f7265206d6f6e657921000000000000000000600082015250565b600061085660178361080f565b915061086182610820565b602082019050919050565b6000602082019050818103600083015261088581610849565b9050919050565b7f4e487b7100000000000000000000000000000000000000000000000000000000600052604160045260246000fd5b7f4e487b7100000000000000000000000000000000000000000000000000000000600052603260045260246000fd5b7f4e487b7100000000000000000000000000000000000000000000000000000000600052602160045260246000fd5b7f4e487b7100000000000000000000000000000000000000000000000000000000600052601260045260246000fd5b6000610953826105c4565b915061095e836105c4565b92508261096e5761096d610919565b5b828206905092915050565b7f4e487b7100000000000000000000000000000000000000000000000000000000600052601160045260246000fd5b60006109b3826105c4565b91506109be836105c4565b9250827fffffffffffffffffffffffffffffffffffffffffffffffffffffffffffffffff038211156109f3576109f2610979565b5b828201905092915050565b6000610a09826105c4565b91506000821415610a1d57610a1c610979565b5b60018203905091905056fea26469706673582212201a9cdd0c5c7253597d3be6681f3cd206ea0559ea5360c922ed47597e91333e5964736f6c634300080a0033",
          "opcodes": "PUSH1 0x80 PUSH1 0x40 MSTORE CALLVALUE DUP1 ISZERO PUSH2 0x10 JUMPI PUSH1 0x0 DUP1 REVERT JUMPDEST POP PUSH2 0xA5E DUP1 PUSH2 0x20 PUSH1 0x0 CODECOPY PUSH1 0x0 RETURN INVALID PUSH1 0x80 PUSH1 0x40 MSTORE PUSH1 0x4 CALLDATASIZE LT PUSH2 0x7B JUMPI PUSH1 0x0 CALLDATALOAD PUSH1 0xE0 SHR DUP1 PUSH4 0x5E7E236D GT PUSH2 0x4E JUMPI DUP1 PUSH4 0x5E7E236D EQ PUSH2 0x162 JUMPI DUP1 PUSH4 0x9A8D2882 EQ PUSH2 0x17E JUMPI DUP1 PUSH4 0xB5F0F1B7 EQ PUSH2 0x1A9 JUMPI DUP1 PUSH4 0xE53FBDA6 EQ PUSH2 0x1E6 JUMPI PUSH2 0x7B JUMP JUMPDEST DUP1 PUSH4 0x2E4AF01 EQ PUSH2 0x80 JUMPI DUP1 PUSH4 0x3ACFCAA7 EQ PUSH2 0xAB JUMPI DUP1 PUSH4 0x3FC70F2C EQ PUSH2 0xE8 JUMPI DUP1 PUSH4 0x5BC0A623 EQ PUSH2 0x125 JUMPI JUMPDEST PUSH1 0x0 DUP1 REVERT JUMPDEST CALLVALUE DUP1 ISZERO PUSH2 0x8C JUMPI PUSH1 0x0 DUP1 REVERT JUMPDEST POP PUSH2 0x95 PUSH2 0x223 JUMP JUMPDEST PUSH1 0x40 MLOAD PUSH2 0xA2 SWAP2 SWAP1 PUSH2 0x5DD JUMP JUMPDEST PUSH1 0x40 MLOAD DUP1 SWAP2 SUB SWAP1 RETURN JUMPDEST CALLVALUE DUP1 ISZERO PUSH2 0xB7 JUMPI PUSH1 0x0 DUP1 REVERT JUMPDEST POP PUSH2 0xD2 PUSH1 0x4 DUP1 CALLDATASIZE SUB DUP2 ADD SWAP1 PUSH2 0xCD SWAP2 SWAP1 PUSH2 0x629 JUMP JUMPDEST PUSH2 0x256 JUMP JUMPDEST PUSH1 0x40 MLOAD PUSH2 0xDF SWAP2 SWAP1 PUSH2 0x675 JUMP JUMPDEST PUSH1 0x40 MLOAD DUP1 SWAP2 SUB SWAP1 RETURN JUMPDEST CALLVALUE DUP1 ISZERO PUSH2 0xF4 JUMPI PUSH1 0x0 DUP1 REVERT JUMPDEST POP PUSH2 0x10F PUSH1 0x4 DUP1 CALLDATASIZE SUB DUP2 ADD SWAP1 PUSH2 0x10A SWAP2 SWAP1 PUSH2 0x629 JUMP JUMPDEST PUSH2 0x267 JUMP JUMPDEST PUSH1 0x40 MLOAD PUSH2 0x11C SWAP2 SWAP1 PUSH2 0x675 JUMP JUMPDEST PUSH1 0x40 MLOAD DUP1 SWAP2 SUB SWAP1 RETURN JUMPDEST CALLVALUE DUP1 ISZERO PUSH2 0x131 JUMPI PUSH1 0x0 DUP1 REVERT JUMPDEST POP PUSH2 0x14C PUSH1 0x4 DUP1 CALLDATASIZE SUB DUP2 ADD SWAP1 PUSH2 0x147 SWAP2 SWAP1 PUSH2 0x629 JUMP JUMPDEST PUSH2 0x278 JUMP JUMPDEST PUSH1 0x40 MLOAD PUSH2 0x159 SWAP2 SWAP1 PUSH2 0x675 JUMP JUMPDEST PUSH1 0x40 MLOAD DUP1 SWAP2 SUB SWAP1 RETURN JUMPDEST PUSH2 0x17C PUSH1 0x4 DUP1 CALLDATASIZE SUB DUP2 ADD SWAP1 PUSH2 0x177 SWAP2 SWAP1 PUSH2 0x6B5 JUMP JUMPDEST PUSH2 0x289 JUMP JUMPDEST STOP JUMPDEST CALLVALUE DUP1 ISZERO PUSH2 0x18A JUMPI PUSH1 0x0 DUP1 REVERT JUMPDEST POP PUSH2 0x193 PUSH2 0x50E JUMP JUMPDEST PUSH1 0x40 MLOAD PUSH2 0x1A0 SWAP2 SWAP1 PUSH2 0x7A0 JUMP JUMPDEST PUSH1 0x40 MLOAD DUP1 SWAP2 SUB SWAP1 RETURN JUMPDEST CALLVALUE DUP1 ISZERO PUSH2 0x1B5 JUMPI PUSH1 0x0 DUP1 REVERT JUMPDEST POP PUSH2 0x1D0 PUSH1 0x4 DUP1 CALLDATASIZE SUB DUP2 ADD SWAP1 PUSH2 0x1CB SWAP2 SWAP1 PUSH2 0x629 JUMP JUMPDEST PUSH2 0x5A2 JUMP JUMPDEST PUSH1 0x40 MLOAD PUSH2 0x1DD SWAP2 SWAP1 PUSH2 0x675 JUMP JUMPDEST PUSH1 0x40 MLOAD DUP1 SWAP2 SUB SWAP1 RETURN JUMPDEST CALLVALUE DUP1 ISZERO PUSH2 0x1F2 JUMPI PUSH1 0x0 DUP1 REVERT JUMPDEST POP PUSH2 0x20D PUSH1 0x4 DUP1 CALLDATASIZE SUB DUP2 ADD SWAP1 PUSH2 0x208 SWAP2 SWAP1 PUSH2 0x629 JUMP JUMPDEST PUSH2 0x5B3 JUMP JUMPDEST PUSH1 0x40 MLOAD PUSH2 0x21A SWAP2 SWAP1 PUSH2 0x675 JUMP JUMPDEST PUSH1 0x40 MLOAD DUP1 SWAP2 SUB SWAP1 RETURN JUMPDEST PUSH1 0x0 DIFFICULTY TIMESTAMP PUSH1 0x40 MLOAD PUSH1 0x20 ADD PUSH2 0x238 SWAP3 SWAP2 SWAP1 PUSH2 0x7E3 JUMP JUMPDEST PUSH1 0x40 MLOAD PUSH1 0x20 DUP2 DUP4 SUB SUB DUP2 MSTORE SWAP1 PUSH1 0x40 MSTORE DUP1 MLOAD SWAP1 PUSH1 0x20 ADD KECCAK256 PUSH1 0x0 SHR SWAP1 POP SWAP1 JUMP JUMPDEST PUSH1 0x0 PUSH1 0x1F PUSH1 0x11 DUP4 SWAP1 SHR AND SWAP1 POP SWAP2 SWAP1 POP JUMP JUMPDEST PUSH1 0x0 PUSH1 0x1F PUSH1 0x7 DUP4 SWAP1 SHR AND SWAP1 POP SWAP2 SWAP1 POP JUMP JUMPDEST PUSH1 0x0 PUSH1 0x1F PUSH1 0x16 DUP4 SWAP1 SHR AND SWAP1 POP SWAP2 SWAP1 POP JUMP JUMPDEST PUSH7 0xB1A2BC2EC50000 CALLVALUE LT ISZERO PUSH2 0x2D3 JUMPI PUSH1 0x40 MLOAD PUSH32 0x8C379A000000000000000000000000000000000000000000000000000000000 DUP2 MSTORE PUSH1 0x4 ADD PUSH2 0x2CA SWAP1 PUSH2 0x86C JUMP JUMPDEST PUSH1 0x40 MLOAD DUP1 SWAP2 SUB SWAP1 REVERT JUMPDEST PUSH1 0x0 PUSH1 0x5 PUSH8 0xFFFFFFFFFFFFFFFF DUP2 GT ISZERO PUSH2 0x2F0 JUMPI PUSH2 0x2EF PUSH2 0x88C JUMP JUMPDEST JUMPDEST PUSH1 0x40 MLOAD SWAP1 DUP1 DUP3 MSTORE DUP1 PUSH1 0x20 MUL PUSH1 0x20 ADD DUP3 ADD PUSH1 0x40 MSTORE DUP1 ISZERO PUSH2 0x31E JUMPI DUP2 PUSH1 0x20 ADD PUSH1 0x20 DUP3 MUL DUP1 CALLDATASIZE DUP4 CALLDATACOPY DUP1 DUP3 ADD SWAP2 POP POP SWAP1 POP JUMPDEST POP SWAP1 POP PUSH1 0x2 DUP2 PUSH1 0x0 DUP2 MLOAD DUP2 LT PUSH2 0x337 JUMPI PUSH2 0x336 PUSH2 0x8BB JUMP JUMPDEST JUMPDEST PUSH1 0x20 MUL PUSH1 0x20 ADD ADD DUP2 DUP2 MSTORE POP POP PUSH1 0x7 DUP2 PUSH1 0x1 DUP2 MLOAD DUP2 LT PUSH2 0x359 JUMPI PUSH2 0x358 PUSH2 0x8BB JUMP JUMPDEST JUMPDEST PUSH1 0x20 MUL PUSH1 0x20 ADD ADD DUP2 DUP2 MSTORE POP POP PUSH1 0xC DUP2 PUSH1 0x2 DUP2 MLOAD DUP2 LT PUSH2 0x37B JUMPI PUSH2 0x37A PUSH2 0x8BB JUMP JUMPDEST JUMPDEST PUSH1 0x20 MUL PUSH1 0x20 ADD ADD DUP2 DUP2 MSTORE POP POP PUSH1 0x11 DUP2 PUSH1 0x3 DUP2 MLOAD DUP2 LT PUSH2 0x39D JUMPI PUSH2 0x39C PUSH2 0x8BB JUMP JUMPDEST JUMPDEST PUSH1 0x20 MUL PUSH1 0x20 ADD ADD DUP2 DUP2 MSTORE POP POP PUSH1 0x16 DUP2 PUSH1 0x4 DUP2 MLOAD DUP2 LT PUSH2 0x3BF JUMPI PUSH2 0x3BE PUSH2 0x8BB JUMP JUMPDEST JUMPDEST PUSH1 0x20 MUL PUSH1 0x20 ADD ADD DUP2 DUP2 MSTORE POP POP PUSH1 0x0 PUSH1 0x5 SWAP1 POP PUSH1 0x0 DUP4 PUSH1 0x2 DUP2 GT ISZERO PUSH2 0x3E6 JUMPI PUSH2 0x3E5 PUSH2 0x8EA JUMP JUMPDEST JUMPDEST SWAP1 POP JUMPDEST PUSH1 0x0 DUP3 PUSH2 0x3F4 PUSH2 0x223 JUMP JUMPDEST PUSH2 0x3FE SWAP2 SWAP1 PUSH2 0x948 JUMP JUMPDEST SWAP1 POP PUSH1 0x0 PUSH1 0x1 DUP5 PUSH1 0xD PUSH2 0x411 SWAP2 SWAP1 PUSH2 0x9A8 JUMP JUMPDEST PUSH2 0x419 PUSH2 0x223 JUMP JUMPDEST PUSH2 0x423 SWAP2 SWAP1 PUSH2 0x948 JUMP JUMPDEST PUSH2 0x42D SWAP2 SWAP1 PUSH2 0x9A8 JUMP JUMPDEST SWAP1 POP DUP5 DUP3 DUP2 MLOAD DUP2 LT PUSH2 0x442 JUMPI PUSH2 0x441 PUSH2 0x8BB JUMP JUMPDEST JUMPDEST PUSH1 0x20 MUL PUSH1 0x20 ADD ADD MLOAD DUP2 SWAP1 SHL DUP4 OR SWAP3 POP DUP4 DUP1 PUSH2 0x45C SWAP1 PUSH2 0x9FE JUMP JUMPDEST SWAP5 POP POP DUP5 DUP5 DUP2 MLOAD DUP2 LT PUSH2 0x472 JUMPI PUSH2 0x471 PUSH2 0x8BB JUMP JUMPDEST JUMPDEST PUSH1 0x20 MUL PUSH1 0x20 ADD ADD MLOAD DUP6 DUP4 DUP2 MLOAD DUP2 LT PUSH2 0x48D JUMPI PUSH2 0x48C PUSH2 0x8BB JUMP JUMPDEST JUMPDEST PUSH1 0x20 MUL PUSH1 0x20 ADD ADD DUP2 DUP2 MSTORE POP POP POP POP PUSH1 0x0 DUP3 GT PUSH2 0x3E9 JUMPI PUSH1 0x0 DUP1 CALLER PUSH20 0xFFFFFFFFFFFFFFFFFFFFFFFFFFFFFFFFFFFFFFFF AND PUSH20 0xFFFFFFFFFFFFFFFFFFFFFFFFFFFFFFFFFFFFFFFF AND DUP2 MSTORE PUSH1 0x20 ADD SWAP1 DUP2 MSTORE PUSH1 0x20 ADD PUSH1 0x0 KECCAK256 DUP2 SWAP1 DUP1 PUSH1 0x1 DUP2 SLOAD ADD DUP1 DUP3 SSTORE DUP1 SWAP2 POP POP PUSH1 0x1 SWAP1 SUB SWAP1 PUSH1 0x0 MSTORE PUSH1 0x20 PUSH1 0x0 KECCAK256 ADD PUSH1 0x0 SWAP1 SWAP2 SWAP1 SWAP2 SWAP1 SWAP2 POP SSTORE POP POP POP POP JUMP JUMPDEST PUSH1 0x60 PUSH1 0x0 DUP1 CALLER PUSH20 0xFFFFFFFFFFFFFFFFFFFFFFFFFFFFFFFFFFFFFFFF AND PUSH20 0xFFFFFFFFFFFFFFFFFFFFFFFFFFFFFFFFFFFFFFFF AND DUP2 MSTORE PUSH1 0x20 ADD SWAP1 DUP2 MSTORE PUSH1 0x20 ADD PUSH1 0x0 KECCAK256 DUP1 SLOAD DUP1 PUSH1 0x20 MUL PUSH1 0x20 ADD PUSH1 0x40 MLOAD SWAP1 DUP2 ADD PUSH1 0x40 MSTORE DUP1 SWAP3 SWAP2 SWAP1 DUP2 DUP2 MSTORE PUSH1 0x20 ADD DUP3 DUP1 SLOAD DUP1 ISZERO PUSH2 0x598 JUMPI PUSH1 0x20 MUL DUP3 ADD SWAP2 SWAP1 PUSH1 0x0 MSTORE PUSH1 0x20 PUSH1 0x0 KECCAK256 SWAP1 JUMPDEST DUP2 SLOAD DUP2 MSTORE PUSH1 0x20 ADD SWAP1 PUSH1 0x1 ADD SWAP1 DUP1 DUP4 GT PUSH2 0x584 JUMPI JUMPDEST POP POP POP POP POP SWAP1 POP SWAP1 JUMP JUMPDEST PUSH1 0x0 PUSH1 0x1F PUSH1 0xC DUP4 SWAP1 SHR AND SWAP1 POP SWAP2 SWAP1 POP JUMP JUMPDEST PUSH1 0x0 PUSH1 0x1F PUSH1 0x2 DUP4 SWAP1 SHR AND SWAP1 POP SWAP2 SWAP1 POP JUMP JUMPDEST PUSH1 0x0 DUP2 SWAP1 POP SWAP2 SWAP1 POP JUMP JUMPDEST PUSH2 0x5D7 DUP2 PUSH2 0x5C4 JUMP JUMPDEST DUP3 MSTORE POP POP JUMP JUMPDEST PUSH1 0x0 PUSH1 0x20 DUP3 ADD SWAP1 POP PUSH2 0x5F2 PUSH1 0x0 DUP4 ADD DUP5 PUSH2 0x5CE JUMP JUMPDEST SWAP3 SWAP2 POP POP JUMP JUMPDEST PUSH1 0x0 DUP1 REVERT JUMPDEST PUSH2 0x606 DUP2 PUSH2 0x5C4 JUMP JUMPDEST DUP2 EQ PUSH2 0x611 JUMPI PUSH1 0x0 DUP1 REVERT JUMPDEST POP JUMP JUMPDEST PUSH1 0x0 DUP2 CALLDATALOAD SWAP1 POP PUSH2 0x623 DUP2 PUSH2 0x5FD JUMP JUMPDEST SWAP3 SWAP2 POP POP JUMP JUMPDEST PUSH1 0x0 PUSH1 0x20 DUP3 DUP5 SUB SLT ISZERO PUSH2 0x63F JUMPI PUSH2 0x63E PUSH2 0x5F8 JUMP JUMPDEST JUMPDEST PUSH1 0x0 PUSH2 0x64D DUP5 DUP3 DUP6 ADD PUSH2 0x614 JUMP JUMPDEST SWAP2 POP POP SWAP3 SWAP2 POP POP JUMP JUMPDEST PUSH1 0x0 PUSH4 0xFFFFFFFF DUP3 AND SWAP1 POP SWAP2 SWAP1 POP JUMP JUMPDEST PUSH2 0x66F DUP2 PUSH2 0x656 JUMP JUMPDEST DUP3 MSTORE POP POP JUMP JUMPDEST PUSH1 0x0 PUSH1 0x20 DUP3 ADD SWAP1 POP PUSH2 0x68A PUSH1 0x0 DUP4 ADD DUP5 PUSH2 0x666 JUMP JUMPDEST SWAP3 SWAP2 POP POP JUMP JUMPDEST PUSH1 0x3 DUP2 LT PUSH2 0x69D JUMPI PUSH1 0x0 DUP1 REVERT JUMPDEST POP JUMP JUMPDEST PUSH1 0x0 DUP2 CALLDATALOAD SWAP1 POP PUSH2 0x6AF DUP2 PUSH2 0x690 JUMP JUMPDEST SWAP3 SWAP2 POP POP JUMP JUMPDEST PUSH1 0x0 PUSH1 0x20 DUP3 DUP5 SUB SLT ISZERO PUSH2 0x6CB JUMPI PUSH2 0x6CA PUSH2 0x5F8 JUMP JUMPDEST JUMPDEST PUSH1 0x0 PUSH2 0x6D9 DUP5 DUP3 DUP6 ADD PUSH2 0x6A0 JUMP JUMPDEST SWAP2 POP POP SWAP3 SWAP2 POP POP JUMP JUMPDEST PUSH1 0x0 DUP2 MLOAD SWAP1 POP SWAP2 SWAP1 POP JUMP JUMPDEST PUSH1 0x0 DUP3 DUP3 MSTORE PUSH1 0x20 DUP3 ADD SWAP1 POP SWAP3 SWAP2 POP POP JUMP JUMPDEST PUSH1 0x0 DUP2 SWAP1 POP PUSH1 0x20 DUP3 ADD SWAP1 POP SWAP2 SWAP1 POP JUMP JUMPDEST PUSH2 0x717 DUP2 PUSH2 0x5C4 JUMP JUMPDEST DUP3 MSTORE POP POP JUMP JUMPDEST PUSH1 0x0 PUSH2 0x729 DUP4 DUP4 PUSH2 0x70E JUMP JUMPDEST PUSH1 0x20 DUP4 ADD SWAP1 POP SWAP3 SWAP2 POP POP JUMP JUMPDEST PUSH1 0x0 PUSH1 0x20 DUP3 ADD SWAP1 POP SWAP2 SWAP1 POP JUMP JUMPDEST PUSH1 0x0 PUSH2 0x74D DUP3 PUSH2 0x6E2 JUMP JUMPDEST PUSH2 0x757 DUP2 DUP6 PUSH2 0x6ED JUMP JUMPDEST SWAP4 POP PUSH2 0x762 DUP4 PUSH2 0x6FE JUMP JUMPDEST DUP1 PUSH1 0x0 JUMPDEST DUP4 DUP2 LT ISZERO PUSH2 0x793 JUMPI DUP2 MLOAD PUSH2 0x77A DUP9 DUP3 PUSH2 0x71D JUMP JUMPDEST SWAP8 POP PUSH2 0x785 DUP4 PUSH2 0x735 JUMP JUMPDEST SWAP3 POP POP PUSH1 0x1 DUP2 ADD SWAP1 POP PUSH2 0x766 JUMP JUMPDEST POP DUP6 SWAP4 POP POP POP POP SWAP3 SWAP2 POP POP JUMP JUMPDEST PUSH1 0x0 PUSH1 0x20 DUP3 ADD SWAP1 POP DUP2 DUP2 SUB PUSH1 0x0 DUP4 ADD MSTORE PUSH2 0x7BA DUP2 DUP5 PUSH2 0x742 JUMP JUMPDEST SWAP1 POP SWAP3 SWAP2 POP POP JUMP JUMPDEST PUSH1 0x0 DUP2 SWAP1 POP SWAP2 SWAP1 POP JUMP JUMPDEST PUSH2 0x7DD PUSH2 0x7D8 DUP3 PUSH2 0x5C4 JUMP JUMPDEST PUSH2 0x7C2 JUMP JUMPDEST DUP3 MSTORE POP POP JUMP JUMPDEST PUSH1 0x0 PUSH2 0x7EF DUP3 DUP6 PUSH2 0x7CC JUMP JUMPDEST PUSH1 0x20 DUP3 ADD SWAP2 POP PUSH2 0x7FF DUP3 DUP5 PUSH2 0x7CC JUMP JUMPDEST PUSH1 0x20 DUP3 ADD SWAP2 POP DUP2 SWAP1 POP SWAP4 SWAP3 POP POP POP JUMP JUMPDEST PUSH1 0x0 DUP3 DUP3 MSTORE PUSH1 0x20 DUP3 ADD SWAP1 POP SWAP3 SWAP2 POP POP JUMP JUMPDEST PUSH32 0x506C656173652073656E64206D6F7265206D6F6E657921000000000000000000 PUSH1 0x0 DUP3 ADD MSTORE POP JUMP JUMPDEST PUSH1 0x0 PUSH2 0x856 PUSH1 0x17 DUP4 PUSH2 0x80F JUMP JUMPDEST SWAP2 POP PUSH2 0x861 DUP3 PUSH2 0x820 JUMP JUMPDEST PUSH1 0x20 DUP3 ADD SWAP1 POP SWAP2 SWAP1 POP JUMP JUMPDEST PUSH1 0x0 PUSH1 0x20 DUP3 ADD SWAP1 POP DUP2 DUP2 SUB PUSH1 0x0 DUP4 ADD MSTORE PUSH2 0x885 DUP2 PUSH2 0x849 JUMP JUMPDEST SWAP1 POP SWAP2 SWAP1 POP JUMP JUMPDEST PUSH32 0x4E487B7100000000000000000000000000000000000000000000000000000000 PUSH1 0x0 MSTORE PUSH1 0x41 PUSH1 0x4 MSTORE PUSH1 0x24 PUSH1 0x0 REVERT JUMPDEST PUSH32 0x4E487B7100000000000000000000000000000000000000000000000000000000 PUSH1 0x0 MSTORE PUSH1 0x32 PUSH1 0x4 MSTORE PUSH1 0x24 PUSH1 0x0 REVERT JUMPDEST PUSH32 0x4E487B7100000000000000000000000000000000000000000000000000000000 PUSH1 0x0 MSTORE PUSH1 0x21 PUSH1 0x4 MSTORE PUSH1 0x24 PUSH1 0x0 REVERT JUMPDEST PUSH32 0x4E487B7100000000000000000000000000000000000000000000000000000000 PUSH1 0x0 MSTORE PUSH1 0x12 PUSH1 0x4 MSTORE PUSH1 0x24 PUSH1 0x0 REVERT JUMPDEST PUSH1 0x0 PUSH2 0x953 DUP3 PUSH2 0x5C4 JUMP JUMPDEST SWAP2 POP PUSH2 0x95E DUP4 PUSH2 0x5C4 JUMP JUMPDEST SWAP3 POP DUP3 PUSH2 0x96E JUMPI PUSH2 0x96D PUSH2 0x919 JUMP JUMPDEST JUMPDEST DUP3 DUP3 MOD SWAP1 POP SWAP3 SWAP2 POP POP JUMP JUMPDEST PUSH32 0x4E487B7100000000000000000000000000000000000000000000000000000000 PUSH1 0x0 MSTORE PUSH1 0x11 PUSH1 0x4 MSTORE PUSH1 0x24 PUSH1 0x0 REVERT JUMPDEST PUSH1 0x0 PUSH2 0x9B3 DUP3 PUSH2 0x5C4 JUMP JUMPDEST SWAP2 POP PUSH2 0x9BE DUP4 PUSH2 0x5C4 JUMP JUMPDEST SWAP3 POP DUP3 PUSH32 0xFFFFFFFFFFFFFFFFFFFFFFFFFFFFFFFFFFFFFFFFFFFFFFFFFFFFFFFFFFFFFFFF SUB DUP3 GT ISZERO PUSH2 0x9F3 JUMPI PUSH2 0x9F2 PUSH2 0x979 JUMP JUMPDEST JUMPDEST DUP3 DUP3 ADD SWAP1 POP SWAP3 SWAP2 POP POP JUMP JUMPDEST PUSH1 0x0 PUSH2 0xA09 DUP3 PUSH2 0x5C4 JUMP JUMPDEST SWAP2 POP PUSH1 0x0 DUP3 EQ ISZERO PUSH2 0xA1D JUMPI PUSH2 0xA1C PUSH2 0x979 JUMP JUMPDEST JUMPDEST PUSH1 0x1 DUP3 SUB SWAP1 POP SWAP2 SWAP1 POP JUMP INVALID LOG2 PUSH5 0x6970667358 0x22 SLT KECCAK256 BYTE SWAP13 0xDD 0xC 0x5C PUSH19 0x53597D3BE6681F3CD206EA0559EA5360C922ED SELFBALANCE MSIZE PUSH31 0x91333E5964736F6C634300080A003300000000000000000000000000000000 "
        },
        "methodIdentifiers": {
          "createHero(uint8)": "5e7e236d",
          "generateRandom()": "02e4af01",
          "getDex(uint256)": "b5f0f1b7",
          "getHealth(uint256)": "3fc70f2c",
          "getHeroes()": "9a8d2882",
          "getIntellect(uint256)": "3acfcaa7",
          "getMagic(uint256)": "5bc0a623",
          "getStrength(uint256)": "e53fbda6"
        }
      }
    }
  }
}