{
  "_format": "hh-sol-artifact-1",
  "contractName": "Counter",
  "sourceName": "contracts/Counter.sol",
  "abi": [
    {
      "anonymous": false,
      "inputs": [
        {
          "indexed": false,
          "internalType": "uint256",
          "name": "counter",
          "type": "uint256"
        }
      ],
      "name": "CounterInc",
      "type": "event"
    },
    {
      "inputs": [],
      "name": "count",
      "outputs": [
        {
          "internalType": "uint256",
          "name": "",
          "type": "uint256"
        }
      ],
      "stateMutability": "nonpayable",
      "type": "function"
    },
    {
      "inputs": [],
      "name": "getCounter",
      "outputs": [
        {
          "internalType": "uint32",
          "name": "",
          "type": "uint32"
        }
      ],
      "stateMutability": "view",
      "type": "function"
    }
  ],
  "bytecode": "0x608060405234801561001057600080fd5b506103c0806100206000396000f3fe608060405234801561001057600080fd5b50600436106100365760003560e01c806306661abd1461003b5780638ada066e14610059575b600080fd5b610043610077565b60405161005091906101f4565b60405180910390f35b61006161010d565b60405161006e919061022e565b60405180910390f35b600080600081548092919061008b90610278565b91905055506100d16040518060400160405280600e81526020017f436f756e746572206973206e6f77000000000000000000000000000000000000815250600054610116565b7feec7b728df2430a6685bba924a4a787b147d45a2b38034570f9fe9613a91ea4460005460405161010291906101f4565b60405180910390a190565b60008054905090565b6101ae828260405160240161012c92919061035a565b6040516020818303038152906040527f9710a9d0000000000000000000000000000000000000000000000000000000007bffffffffffffffffffffffffffffffffffffffffffffffffffffffff19166020820180517bffffffffffffffffffffffffffffffffffffffffffffffffffffffff83818316178352505050506101b2565b5050565b60008151905060006a636f6e736f6c652e6c6f679050602083016000808483855afa5050505050565b6000819050919050565b6101ee816101db565b82525050565b600060208201905061020960008301846101e5565b92915050565b600063ffffffff82169050919050565b6102288161020f565b82525050565b6000602082019050610243600083018461021f565b92915050565b7f4e487b7100000000000000000000000000000000000000000000000000000000600052601160045260246000fd5b6000610283826101db565b91507fffffffffffffffffffffffffffffffffffffffffffffffffffffffffffffffff8214156102b6576102b5610249565b5b600182019050919050565b600081519050919050565b600082825260208201905092915050565b60005b838110156102fb5780820151818401526020810190506102e0565b8381111561030a576000848401525b50505050565b6000601f19601f8301169050919050565b600061032c826102c1565b61033681856102cc565b93506103468185602086016102dd565b61034f81610310565b840191505092915050565b600060408201905081810360008301526103748185610321565b905061038360208301846101e5565b939250505056fea2646970667358221220ed1ca3c13245537e06dd509d250e512976bb8f14a9abed0a446da9a28ea8b45164736f6c634300080a0033",
  "linkReferences": {},
  "deployedLinkReferences": {}
}